{
  "_format": "hh-sol-artifact-1",
  "contractName": "Marketplace",
  "sourceName": "src/backend/contracts/Marketplace.sol",
  "abi": [
    {
      "inputs": [
        {
          "internalType": "uint256",
          "name": "_feePercent",
          "type": "uint256"
        }
      ],
      "stateMutability": "nonpayable",
      "type": "constructor"
    },
    {
      "inputs": [],
      "name": "feePercent",
      "outputs": [
        {
          "internalType": "uint256",
          "name": "",
          "type": "uint256"
        }
      ],
      "stateMutability": "view",
      "type": "function"
    },
    {
      "inputs": [],
      "name": "itemCount",
      "outputs": [
        {
          "internalType": "uint256",
          "name": "",
          "type": "uint256"
        }
      ],
      "stateMutability": "view",
      "type": "function"
    }
  ],
  "bytecode": "0x60c060405234801561001057600080fd5b506040516101fb3803806101fb83398181016040528101906100329190610094565b60016000819055503373ffffffffffffffffffffffffffffffffffffffff1660808173ffffffffffffffffffffffffffffffffffffffff1660601b815250508060a08181525050506100de565b60008151905061008e816100c7565b92915050565b6000602082840312156100a657600080fd5b60006100b48482850161007f565b91505092915050565b6000819050919050565b6100d0816100bd565b81146100db57600080fd5b50565b60805160601c60a05160fb6101006000396000607301526000505060fb6000f3fe6080604052348015600f57600080fd5b506004361060325760003560e01c80636bfb0d011460375780637fd6f15c146051575b600080fd5b603d606b565b6040516048919060a2565b60405180910390f35b60576071565b6040516062919060a2565b60405180910390f35b60015481565b7f000000000000000000000000000000000000000000000000000000000000000081565b609c8160bb565b82525050565b600060208201905060b560008301846095565b92915050565b600081905091905056fea2646970667358221220ca5b83cb3c68b84fe4e27d00c8257189371a4d0dd0d1f654036454b860c1e46964736f6c63430008040033",
  "linkReferences": {},
  "deployedLinkReferences": {}
}